:100000000C9480020C949D020C94CC060C949D02DE
:100010000C949D020C949D020C949D020C949D02E4
:100020000C949D020C949D020C949D020C949D02D4
:100030000C949D020C949D020C949D020C949D02C4
:100040000C94B4030C949D020C949D020C949D029C
:100050000C949D020C949D020C949D020C949D02A4
:100060000C949D020C949D02001E3333381E0F33F6
:10007000331E0000333333333F3333333300003325
:10008000333333F3333333F3000030303030303038
:100090003030FD0000E0606060E0606060E0000023
:1000A0003330B0B0F3303030F300003633B3B1F159
:1000B000333333F10000060303010103030301009E
:1000C00000C66676363E6666663E0000BE8606065A
:1000D0003E0606063E0000B1B19B9F9B9B9B8E8E09
:1000E000000031191D0D0F1919190F0000D6D6D6B1
:1000F000DEEEEEC6C6C60000C6C66C7C6C6C6C3804
:100100003800008C8C8C8C8C8C8C8CBF0000191966
:1001100019191F191919190000D6D6D6DEEEEEC628
:10012000C6C600008CCCEC6C7CCCCCCC7C0000CD6A
:10013000ECECECFCDCDCDCCC000078CCCCCCEC0CCB
:10014000CCCC780000DBDB9B9F9B1B1B0ECE000002
:1001500087C0C1C1C1C3C3C6870000676C6C6CECAB
:100160006C6C6CE700001818181879181818FB0048
:1001700000C0C0F0D0D0E0E0C0C000003030315846
:1001800058585898980000C68685CDCDCDCDCC8CDA
:1001900000000C04040C0C0C0C0C0700009BDBDBB7
:1001A000DFDBDBDBCE8E000007CCC0C0F0F0C0CCC4
:1001B000C70000F89898989B9B9898F8000078CD15
:1001C0000D0D0D0D0DCD780000C6C66C7C6C6C6CF1
:1001D000383800003E666666666666663E0000C6A3
:1001E0006676363E6666663E00003C6666703C1E7D
:1001F00066663C0000E0303080E0F03030E0000027
:100200003133B3B3F1303333F10000E6B3B33131FE
:10021000333333E100040703030303030303010043
:100220000060606060E0606060E00000EC66676352
:10023000E3666666E30000B3B0B0F073703030334D
:10024000000006060606070706060600003C66666E
:10025000703C1E66663C0000D6D6D6DEEEEEC6C604
:10026000C600000C0C0C7CCCCCCCCC7C00003E0638
:10027000060606060606060003000000001000F849
:1002800000001000FC000010C0F8020010C0F007D1
:100290000070C0300F0071C0700F0073C0E00F001D
:1002A00072C0C00F0072C0800F00C3000F0000A01A
:1002B000C0F00700A0C0F8020030A002F80030A093
:1002C00007F00033000F000032500F800032500F53
:1002D000C00033500FE00031500F700030500F302D
:1002E000002030F007002030F802002000FC000061
:1002F0002000F8000003000000001300FF0000D001
:1003000000300000D40078000072D001780072D074
:10031000037800627D800778617D80067840AD803B
:10032000073041A0C00F0040AB800730518B0680E2
:1003300078528B07807852B003780052B001780071
:10034000B400780000B0003000002300FF0000037C
:100350000000000010007F00001000FF00001000EF
:100360007F000010903F8000609030C000619038A6
:10037000C00062901CC00060901EC00061900EC062
:100380000060900FC000629007C000619003C00041
:10039000619001C00040903F800041007F0000005C
:1003A00040803F000180C001000180C00300028046
:1003B000C007000080C00F000180C00E000080C098
:1003C0001E000280C01C000180C038000080C030C8
:1003D000000020803F0020007F00002000FF000080
:1003E00020007F00000100000000F0000C0000F081
:1003F00000180000F000380000F00070000090F0DD
:1004000001F00090F003F000900003000093F0036F
:10041000F0009C00030000900001000000000100BB
:10042000000A0003000003F003F0000300030000D3
:1004300000000100000100000000FF1F181D16173A
:100440002A0E10072A1E141C141E12191606280341
:100450001248150A10291369120F121D144F125D4C
:10046000141E0604280B128811C912E001202186EF
:10047000010E10600007028501020000000028083C
:1004800008132E1E2EF807E60300084001A000F016
:100490002D102C50051004B00480018F1301021799
:1004A000141706190636021E1605021F161F06FF30
:1004B0003F00208201120462001D20181442161A07
:1004C00016121413168214040004088408C408C405
:1004D0000CD40C91089205A60082210B0A0908078A
:1004E000040302010006054C022002F401C8019C2D
:1004F00001700144011801EC00C000940068000084
:1005000011241FBECFEFD8E0DEBFCDBF11E0A0E0C9
:10051000B1E0E8E8F4E102C005900D92A631B10720
:10052000D9F721E0A6E1B1E001C01D92A637B207DC
:10053000E1F70E94E3060C94420A0C94000038E0B4
:1005400090E843E050E0459885B1807228B1207E64
:1005500060916601692309F08160609167016923F8
:1005600009F0826060916801692309F084606091FC
:100570006901692309F0886060916A01692309F0C3
:10058000806160916B01692309F0806460916C0166
:10059000692309F0806860916D01692309F0216089
:1005A00060916E01692309F0226060916F016923F7
:1005B00009F0246060917001692309F0286060915E
:1005C0007101692309F0206185B928B9459AFA01BA
:1005D0003197F1F79695315009F0B5CF4598CA019A
:1005E0000197F1F787B1807E87B984B1807284B9B1
:1005F00088B18F6188B985B18F6D85B988B18F61F8
:1006000088B985B18F6D85B985E090E0FC0131979F
:10061000F1F7459AFC013197F1F745980197F1F709
:1006200087B18F6187B984B18F6D84B9089598E0DF
:1006300063E070E025E030E04598FB013197F1F789
:1006400048B187FF38C04F6148B945B14F6D45B9D2
:10065000F9013197F1F7459AF9013197F1F7880FD0
:10066000915051F7459883E090E00197F1F787B1F9
:10067000807E87B984B1807284B988B18F6188B96E
:1006800085B18F6D85B988B18F6188B985B18F6D5E
:1006900085B9C9010197F1F7459AC9010197F1F7A9
:1006A0004598C9010197F1F787B18F6187B984B186
:1006B0008F6D84B90895407E48B945B14072C7CF67
:1006C00088B1807E88B985B1807285B985E090E077
:1006D000FC013197F1F7459AE3E0F0E03197F1F74B
:1006E00028B12F6128B925B12F6D25B90197F1F7F0
:1006F0000895459A85E090E0FC013197F1F728B123
:10070000207E28B925B1207225B90197F1F7089507
:10071000CF93DF93D82FC62F0E94790388E70E94DA
:10072000170380E00E94170381E20E9417038D2FB8
:100730000E9417038C2F0E9417030E9460030E94DF
:10074000790388E70E94170380E00E94170382E282
:100750000E94170380E00E94170383E00E941703A2
:10076000DF91CF910C9460031F920F920FB60F92FE
:1007700011242F933F934F935F936F938F939F9386
:10078000AF93BF93CF93DF93EF93FF938FEF86BD2C
:100790004A9B4AC08091280186958093280129B1FF
:1007A0008091280140E8249F90011124822B80939E
:1007B0002801809127018F5F809327019091260166
:1007C000992309F45FC0883008F45CC081E080930D
:1007D0002501809128018F708A30C1F58091000138
:1007E000882309F44CC0E0912801E295EF70F0E015
:1007F000EE5FFE4F8081809324011092230180914F
:1008000028018093220110922701109226018DEF7A
:1008100086BD80912501882339F0809124018111C2
:1008200003C01092250115BCFF91EF91DF91CF918C
:10083000BF91AF919F918F916F915F914F913F9138
:100840002F910F900FBE0F901F9018958091280147
:100850008C3B79F040F48C3881F210922401109294
:10086000250115BCCACF883C41F28C3FB1F782E02C
:10087000C2CF80910001882311F083E0BCCF109299
:100880002501BBCF843080F2809126018111CCCF2D
:100890001092270180912801E091230191E09E0FA1
:1008A00090932301F0E082958F70EA5EFE4F808383
:1008B0009091230180912401981708F4B5CF15BCBD
:1008C000809122018A3809F4BCC108F07FC08A33C4
:1008D00009F425C1C0F48A3109F403C18A3209F44C
:1008E0000FC18A3009F0A0CF90E080E0FC01EA5E01
:1008F000FE4F2081FC01E75DFE4F208301968C3086
:100900009105A1F7DAC08A3509F431C108F045C074
:100910008A3409F089CF90E080E09C012C5F3F4F42
:10092000F901E75DFE4F4081FC01E75DFE4F40832A
:10093000F901EB5CFE4F4081FC01EB5CFE4F408314
:100940002F5B3E4FE9012881FC01EF5BFE4F2083C6
:1009500001968830910509F730E020E0F901EA5E60
:10096000FE4F4081FC01E75DFE4F4083F901E95EE7
:10097000FE4F4081FC01EB5CFE4F4083F901E85ED5
:10098000FE4F4081FC01EF5BFE4F40832D5F3F4FE8
:1009900001962C30310511F790C08A3609F40FC149
:1009A0008A3709F041CF90E080E0FC010196DC013C
:1009B000A75DBE4F2C91E75DFE4F20838B309105E4
:1009C000A1F7809116018093340177C08A3C09F425
:1009D0006DC1D8F58A3A09F447C1B0F48A3909F0F3
:1009E00023CF90E080E0FC010196DC01AF5BBE4FBD
:1009F0002C91EF5BFE4F20838B309105A1F7809106
:100A0000160180934C0159C08A3B09F43EC18C3BCE
:100A100009F00ACF30911801809117012091160139
:100A200040E1849FC0011124932B822BEAE5F1E081
:100A3000208180FFAFC120612083969587953196F4
:100A4000C1E0E636FC07A1F738C08A3E09F44CC184
:100A500008F58A3D09F0E8CE8AE090E09C012F5F1E
:100A60003F4FFC01E75DFE4F4081F901E75DFE4F1E
:100A70004083FC01EB5CFE4F40812B5C3E4FF90153
:100A80004083019758F78091160180932901809146
:100A9000170109C18A3F09F451C18C3F09F0C4CE46
:100AA000809116018D3029F49091170181E09F30DB
:100AB00009F080E081708093000180914D01816098
:100AC00080934D0180914D01826080934D018FEFA5
:100AD0008093850081EB8093840085E08093810082
:100AE000A3CE90E080E0FC01EA5EFE4F2081FC0195
:100AF000EB5CFE4F208301968C309105A1F7DDCF92
:100B000090E080E0FC01EA5EFE4F2081FC01EF5B9B
:100B1000FE4F208301968C309105A1F7CECF21E0C6
:100B200030E090E080E0FC013696EF01C75DDE4FDB
:100B30004881DC01A75DBE4F4C93EB5CFE4F4081CA
:100B4000DC01AB5CBE4F4C93DC01AA0FBB1FAA5E5D
:100B5000BE4F4C914883D901AA5EBE4F4C91408351
:100B600001962E5F3F4F86309105E9F6A6CF21E032
:100B700030E085E090E0AC014A5F5F4FDC01A75DAB
:100B8000BE4F6C91FA01E75DFE4F6083FC01EB5CA8
:100B9000FE4F60814B5C5E4FEA016883E901CB5EEA
:100BA000DE4F48814C93D901AA5EBE4F4C914083E1
:100BB00001972E5F3F4F8F3F9807E9F67ECF87E082
:100BC00090E09C012C5F3F4FFC01E75DFE4F4081B0
:100BD000F901E75DFE4F4083FC01EB5CFE4F408175
:100BE000F901EB5CFE4F4083FC01EF5BFE4F40815F
:100BF0002F5B3E4FF9014083019718F723E030E067
:100C000090E080E0FC01EA5EFE4F4081F901E75D83
:100C1000FE4F4083FC01E95EFE4F4081F901EB5C31
:100C2000FE4F4083FC01E85EFE4F4081F901EF5B1F
:100C3000FE4F40830396215031098C30910511F706
:100C40003CCF90E080E0FC010196DC01AB5CBE4F44
:100C50002C91EB5CFE4F20838B309105A1F78091A6
:100C600016018093400129CF8AE090E0FC01E75D06
:100C7000FE4F2081FC01E65DFE4F20830197B0F717
:100C8000809116018093290118CF8AE090E0FC0141
:100C9000EB5CFE4F2081FC01EA5CFE4F2083019754
:100CA000B0F7809116018093350107CF90E080E086
:100CB0009C010196FC01E75DFE4F4081F901E75D73
:100CC000FE4F4083FC01EB5CFE4F40812B5C3E4FAE
:100CD000E90148838B30910559F780911601809383
:100CE000340180911701BDCF90E080E09C01019616
:100CF000FC01E75DFE4F4081F901E75DFE4F408357
:100D0000FC01EB5CFE4F4081F901EB5CFE4F408340
:100D1000FC01EF5BFE4F40812F5B3E4FE9014883B2
:100D20008B30910519F780911601809334018091E1
:100D30001701809340018091180163CE8AE090E012
:100D40009C012F5F3F4FFC01E75DFE4F4081F901A1
:100D5000E75DFE4F4083FC01EB5CFE4F4081F901F3
:100D6000EB5CFE4F4083FC01EF5BFE4F40812F5B4D
:100D70003E4FF9014083019718F780911601809347
:100D8000290180911701809335018091180180938A
:100D9000410193CE2F7E50CE1F920F920FB60F922D
:100DA00011248F934A9B09C08DEF86BD87E085BDD6
:100DB00081E080932601109227018F910F900FBE42
:100DC0000F901F901895CF93DF93CDB7DEB7A697FE
:100DD0000FB6F894DEBF0FBECDBF5F9A579A5E98EC
:100DE000569A88B18F6188B987B18F6187B985B10B
:100DF0008F6D85B984B18F6D84B9459A3D9A8FE323
:100E00009CE90197F1F700C000005E9A9FEFA1EE08
:100E1000B4E09150A040B040E1F700C000005F98FE
:100E2000EFEFF0E722E0E150F0402040E1F700C0B2
:100E300000005F9A4FEF50E762E041505040604041
:100E4000E1F700C000000E94790388E70E941703C1
:100E500080E00E9417038EEA0E94170388EA0E942E
:100E600017038FE10E94170383ED0E94170380E0B0
:100E70000E94170380E40E94170381EA0E9417036F
:100E800080EC0E94170381E80E94170387E80E9404
:100E9000170385ED0E94170380E80E94170389ED70
:100EA0000E94170382E20E9417038AED0E94170333
:100EB00082E10E9417038BED0E94170380E20E94DB
:100EC00017038DE80E94170384E10E94170386EA46
:100ED0000E94170384EA0E9417038FEA0E941703F7
:100EE00080E20E94170380E00E9417030E946003C3
:100EF0006FE780E00E9488030E94790388E70E94E0
:100F0000170380E40E94170310E080E00E9417039B
:100F100080E00E94170380E00E94170380E00E9497
:100F200017031F5F103889F70E946003AAE5B1E03C
:100F3000EEE4F1E080E281931D9271E0EA35F7077B
:100F4000D1F710924D018BB1827E8BB98AB1827E2E
:100F50008AB9809169008C6080936900E19AE99A6E
:100F600015BC8DEF86BDA89A80916E00816080933C
:100F70006E0078945398559A8E01075E1F4FCC24CB
:100F8000C394D12CB09B02C210928100B09AA09061
:100F90004D0180914D018A2580934D01AA2009F4CD
:100FA000F5C180910101882309F4E4C1EAE5F1E08B
:100FB0004EE451E030E020E0D901AF5BBE4F8C91B0
:100FC000D901AB5CBE4F3D01EC90B901675D7E4F2E
:100FD000DB01FC90B0E48B9FC0011124807490E190
:100FE000E99EB00111246073862B8F29803508F0AB
:100FF00080E2DA018D93AD01D3019C918081807FE5
:10100000A92FA695A695B0E0AE5EBE4F9C91892B08
:1010100081932F5F3F4F2C30310571F6A0FEEEC15A
:10102000E6EEF4E08491E0915901F0E0EE0FFF1F4D
:10103000E55CFB4F2591349190E0FC01EE0FFF1F22
:1010400041E050E04C0F5D1FE40FF51F318320831A
:10105000800F911F20916501DC012C93E5EEF4E0F7
:101060008491E0915801F0E0EE0FFF1FE55CFB4F2B
:101070002591349190E0FC01EE0FFF1F41E050E01C
:101080004C0F5D1FE40FF51F31832083800F911FEC
:1010900020916401DC012C93E4EEF4E08491E09172
:1010A0005701F0E0EE0FFF1FE55CFB4F25913491F7
:1010B00090E0FC01EE0FFF1F41E050E04C0F5D1F80
:1010C000E40FF51F31832083800F911F209163016E
:1010D000DC012C93E3EEF4E08491E0915601F0E022
:1010E000EE0FFF1FE55CFB4F25913491E82FF0E0F8
:1010F000DF01AA0FBB1F41E050E04C0F5D1FA40FA2
:10110000B51F2D933C93E00FF11F80916201808306
:10111000E2EEF4E08491E0915501F0E0EE0FFF1F64
:10112000E55CFB4F25913491E82FF0E0DF01AA0F39
:10113000BB1FBA01A40FB51F2D933C93E00FF11F05
:10114000809161018083E1EEF4E08491E0915401AB
:10115000F0E0EE0FFF1FE55CFB4F25913491E82F87
:10116000F0E0DF01AA0FBB1FA40FB51F2D933C9326
:10117000E00FF11F809160018083E0EEF4E0849144
:10118000E0915301F0E0EE0FFF1FE55CFB4F25916E
:101190003491E82FF0E0DF01AA0FBB1FAB01A60FCF
:1011A000B71F2D933C93E00FF11F80915F01808367
:1011B000EFEDF4E08491E0915201F0E0EE0FFF1FBB
:1011C000E55CFB4F25913491E82FF0E0DF01AA0F99
:1011D000BB1FBA01A40FB51F2D933C93E00FF11F65
:1011E00080915E018083EEEDF4E08491E091510105
:1011F000F0E0EE0FFF1FE55CFB4F25913491E82FE7
:10120000F0E0DF01AA0FBB1FA40FB51F2D933C9385
:10121000E00FF11F80915D018083EDEDF4E084919A
:10122000E0915001F0E0EE0FFF1FE55CFB4F2591D0
:101230003491E82FF0E0DF01AA0FBB1FAB01A60F2E
:10124000B71F2D933C93E00FF11F80915C018083C9
:10125000ECEDF4E08491E0914F01F0E0EE0FFF1F20
:10126000E55CFB4F25913491E82FF0E0DF01AA0FF8
:10127000BB1FA40FB51F2D933C93E00FF11F80916E
:101280005B018083EBEDF4E08491E0914E01F0E0AE
:10129000EE0FFF1FE55CFB4F25913491E82FF0E046
:1012A000DF01AA0FBB1FA40FB51F2D933C93E00FC6
:1012B000F11F80915A01808366E685E30E948803CE
:1012C0000E94790388E70E94170380E40E941703B5
:1012D000F12CE12CF701E858FD4FB4909FEFB916BF
:1012E00009F48AC0F701E758FD4F8491F701E658E9
:1012F000FD4F4491F701E558FD4F5491A5E0EA0EEA
:10130000F11CF701E958FD4FB491BDA39B2D9295B7
:101310009F70460102C0880C991C9A95E2F7982F9D
:1013200092959F70160102C0220C331C9A95E2F729
:101330008F70260102C0440C551C8A95E2F7DE012D
:101340001196B801F6E66F2EF1E07F2E2D913D91BA
:10135000FB018191BF01FEEAEF16F1E0FF06C0F04C
:101360008695869590E09927869597958827282BCE
:10137000392B1AC0AAE5B1E0EEE4F1E020E22193B6
:101380001D9241E0EA35F407C9F748CEA12C46CEBC
:1013900095E9E91691E0F90610F08695E3CFE2E7CA
:1013A000EE16E1E0FE06F0F6C40182239323892BBA
:1013B00009F51EA2C10182239323892B19F0FEA1F6
:1013C000F52BFEA324213521232B21F02EA18DA165
:1013D000282B2EA3F3012EA121933F01A017B107C3
:1013E00009F0B4CF0E949F02BA948B2D8F708F307A
:1013F000C9F770CF4EA3DECF0E946003A1FEC2CD1D
:101400006FE285E20E9488030E94790388E70E94C8
:10141000170380E40E941703F12CE12C2BED34E03C
:10142000AAE5B1E090E080E0FC01E350FB4F45917C
:1014300054916D9164FF1EC04E0D5F1DFA014491E1
:10144000F9015491E52FF0E0EA59FE4F40832F5FF8
:101450003F4F0297883EFFEF9F0731F70E949F02A0
:101460002FEFE21AF20A4CE2E416F104B9F60E94F8
:10147000600388CDF9014491E42FF0E0EA59FE4F72
:081480001082E5CFF894FFCFC4
:1014880001010C0C0C0C0C0C0C01010101010202F5
:061498000303000206033D
:00000001FF
